{
  "contractName": "SimpleStorage",
  "abi": [
    {
      "constant": false,
      "inputs": [
        {
          "name": "id",
          "type": "uint256"
        },
        {
          "name": "state",
          "type": "uint256"
        },
        {
          "name": "dataHash",
          "type": "uint256"
        }
      ],
      "name": "setHash",
      "outputs": [],
      "payable": true,
      "stateMutability": "payable",
      "type": "function"
    },
    {
      "constant": true,
      "inputs": [
        {
          "name": "id",
          "type": "uint256"
        },
        {
          "name": "state",
          "type": "uint256"
        }
      ],
      "name": "getHash",
      "outputs": [
        {
          "name": "dataHash",
          "type": "uint256"
        }
      ],
      "payable": false,
      "stateMutability": "view",
      "type": "function"
    },
    {
      "constant": true,
      "inputs": [
        {
          "name": "id",
          "type": "uint256"
        }
      ],
      "name": "getHashArray",
      "outputs": [
        {
          "name": "dataHash",
          "type": "uint256[4]"
        }
      ],
      "payable": false,
      "stateMutability": "view",
      "type": "function"
    }
  ],
  "bytecode": "0x608060405234801561001057600080fd5b506102ed806100206000396000f3fe6080604052600436106100345760003560e01c80631b85504414610039578063671c4e6814610092578063d8d02a60146100d4575b600080fd5b34801561004557600080fd5b5061007c6004803603604081101561005c57600080fd5b81019080803590602001909291908035906020019092919050505061014b565b6040518082815260200191505060405180910390f35b6100d2600480360360608110156100a857600080fd5b81019080803590602001909291908035906020019092919080359060200190929190505050610196565b005b3480156100e057600080fd5b5061010d600480360360208110156100f757600080fd5b81019080803590602001909291905050506101e0565b6040518082600460200280838360005b8381101561013857808201518184015260208101905061011d565b5050505090500191505060405180910390f35b60008180600011158015610160575060038111155b61016957600080fd5b60008085815260200190815260200160002060008481526020019081526020016000205491505092915050565b81806000111580156101a9575060038111155b6101b257600080fd5b8160008086815260200190815260200160002060008581526020019081526020016000208190555050505050565b6101e861029f565b60405180608001604052806000808581526020019081526020016000206000808152602001908152602001600020548152602001600080858152602001908152602001600020600060018152602001908152602001600020548152602001600080858152602001908152602001600020600060028152602001908152602001600020548152602001600080858152602001908152602001600020600060038152602001908152602001600020548152509050919050565b604051806080016040528060049060208202803883398082019150509050509056fea165627a7a72305820d9f1df5a0d1e28f1e0a692676e199d064b272c20f0718e96314f09e1e6c8b8ce0029",
  "source": "pragma solidity >=0.4.21 <0.6.0;\n\ncontract SimpleStorage {\n\t// id => state => dataHash\n\tmapping(uint256 => mapping(uint256 => uint256)) map;\n\n\tmodifier hasValid(uint256 state) {\n\t\trequire(0 <= state && state <= 3);\n\t\t_;\n\t}\n\n\tfunction setHash(uint256 id, uint256 state, uint256 dataHash)\n\t\tpublic\n\t\tpayable\n\t\thasValid(state)\n\t{\n\t\tmap[id][state] = dataHash;\n\t}\n\n\tfunction getHash(uint256 id, uint256 state)\n\t\tpublic\n\t\tview\n\t\thasValid(state)\n\t\treturns (uint256 dataHash)\n\t{\n\t\treturn map[id][state];\n\t}\n\n\tfunction getHashArray(uint256 id)\n\t\tpublic\n\t\tview\n\t\treturns (uint256[4] memory dataHash)\n\t{\n\t\treturn [map[id][0], map[id][1], map[id][2], map[id][3]];\n\t}\n}\n",
  "sourcePath": "/home/gon/tfg/repos/loopback-web-3-example/truffle/contracts/SimpleStorage.sol",
  "compiler": {
    "name": "solc",
    "version": "0.5.8+commit.23d335f2.Emscripten.clang"
  },
  "schemaVersion": "3.0.10",
  "updatedAt": "2019-06-05T13:47:22.050Z",
  "devdoc": {
    "methods": {}
  },
  "userdoc": {
    "methods": {}
  }
}